:100000000C9434000C9446000C9446000C9446006A
:100010000C9446000C9446000C9446000C94460048
:100020000C9446000C9446000C9446000C94460038
:100030000C9446000C9446000C947D000C944600F1
:100040000C9446000C9446000C9446000C94460018
:100050000C9446000C9446000C9446000C94460008
:100060000C9446000C94460011241FBECFEFD8E03C
:10007000DEBFCDBF21E0A0E0B1E001C01D92A43001
:10008000B207E1F70E94FA000C948A010C94000078
:1000900083B18095817008952998089589B18095DC
:1000A0008170089559980895CF93DF9300D000D0C0
:1000B000CDB7DEB78FB7F8942091000130910101E0
:1000C000409102015091030129833A834B835C8361
:1000D0008FBF69817A818B819C810F900F900F90E7
:1000E0000F90DF91CF91089582E084BD93E095BD9C
:1000F00080936E008DE787BD08951F921FB61F92F3
:1001000011248F939F93AF93BF938091000190919F
:100110000101A0910201B09103010196A11DB11D41
:100120008093000190930101A0930201B093030119
:10013000BF91AF919F918F911F901FBE1F901895F7
:10014000EF92FF920F931F93CF93DF9300D000D0D5
:1001500000D0CDB7DEB78D839E837B018A01ED8110
:10016000FE818185823061F481819281A381B48195
:10017000892B8A2B8B2B99F4F701099581112FC0BC
:100180008D819E8126960FB6F894DEBF0FBECDBF3F
:10019000DF91CF911F910F91FF90EF9008950E94F2
:1001A000540069837A838B839C83ED81FE818581F2
:1001B0009681A781B08529813A814B815C81281B7A
:1001C000390B4A0B5B0BDA01C90141815281638112
:1001D000748184179507A607B70770F6D1CFED8114
:1001E000FE81118611821282138214821082F8011C
:1001F0000995C6CFCDB7DEB764970FB6F894DEBFCA
:100200000FBECDBF82E084B98AB91B861C861D86CD
:100210001E861F86188A198A1A8A1B8A1C8A0E94BF
:100220007400789419821A821B821C821D821E829D
:100230001F82188619861A860E947400789412E02C
:1002400088EEC82E83E0D82EE12CF12C01E098EB4B
:10025000892E9BE0992EA12CB12C8C8981113EC056
:1002600018993EC08B85811104C0CC86DD86EE8650
:10027000FF869C89923049F4811107C01A9B05C002
:100280000B871C861D861E861F864CE450E068E4A2
:1002900070E0CE010B960E94A0008A8581112CC0CF
:1002A00048992CC08981811104C08A829B82AC82CA
:1002B000BD829A85923049F4811107C04A9B05C0DE
:1002C00009831A821B821C821D8242E550E06EE483
:1002D00070E0CE0101960E94A000BFCF813011F6E0
:1002E0001C8B0E945400462F572FBC01488B598B02
:1002F0006A8B7B8B299AB6CF8130A1F61A870E9430
:100300005400462F572FBC014E835F83688779873F
:08031000599AC8CFF894FFCF01
:00000001FF
