:100000000C9434000C9446000C9446000C9446006A
:100010000C9446000C9446000C9446000C94460048
:100020000C9446000C9446000C9446000C94460038
:100030000C9446000C9446000C9471000C944600FD
:100040000C9446000C9446000C9446000C94460018
:100050000C9446000C9446000C9446000C94460008
:100060000C9446000C94460011241FBECFEFD8E03C
:10007000DEBFCDBF21E0A0E0B1E001C01D92A43001
:10008000B207E1F70E94A4000C941A010C9400003E
:10009000CF93DF9300D000D0CDB7DEB78FB7F89401
:1000A0002091000130910101409102015091030122
:1000B00029833A834B835C838FBF69817A818B81EB
:1000C0009C810F900F900F900F90DF91CF9108952A
:1000D00082E084BD93E095BD80936E008DE787BD7F
:1000E00008951F921FB61F9211248F939F93AF9371
:1000F000BF938091000190910101A0910201B09104
:1001000003010196A11DB11D80930001909301018F
:10011000A0930201B0930301BF91AF919F918F9182
:100120001F901FBE1F90189583B181700895299A62
:1001300008952998089583B180958170089583B1B9
:1001400082FB882780F90895CDB7DEB72E970FB6CA
:10015000F894DEBF0FBECDBF82E084B919821A8247
:100160001B821C821D821E821F82188619861A8697
:100170000E946800789412E088EEC82E83E0D82EA2
:10018000E12CF12C01E08A85811144C0189945C009
:100190008981811104C0CA82DB82EC82FD829A854A
:1001A000923089F7811109C00E949F00882329F0AD
:1001B00009831A821B821C821D828A809B80AC80EC
:1001C000BD8081149104A104B104C9F00E944800CB
:1001D0006B877C878D879E878E819F81A885B98557
:1001E0002B853C854D855E85281B390B4A0B5B0BA7
:1001F000DA01C90188159905AA05BB0520F21899ED
:10020000C2CF1A861A821B821C821D8219820E940A
:100210009900B9CF813009F0BBCF1A870E944800FE
:10022000462F572FBC014E835F83688779870E94D2
:080230009700AECFF894FFCF58
:00000001FF
