:100000000C9434000C9446000C9446000C9446006A
:100010000C9446000C9446000C9446000C94460048
:100020000C9446000C9446000C9446000C94460038
:100030000C9446000C9446000C9471000C944600FD
:100040000C9446000C9446000C9446000C94460018
:100050000C9446000C9446000C9446000C94460008
:100060000C9446000C94460011241FBECFEFD8E03C
:10007000DEBFCDBF21E0A0E0B1E001C01D92A43001
:10008000B207E1F70E949F000C94E7000C94000077
:10009000CF93DF9300D000D0CDB7DEB78FB7F89401
:1000A0002091000130910101409102015091030122
:1000B00029833A834B835C838FBF69817A818B81EB
:1000C0009C810F900F900F900F90DF91CF9108952A
:1000D00082E084BD93E095BD80936E008DE787BD7F
:1000E00008951F921FB61F9211248F939F93AF9371
:1000F000BF938091000190910101A0910201B09104
:1001000003010196A11DB11D80930001909301018F
:10011000A0930201B0930301BF91AF919F918F9182
:100120001F901FBE1F90189583B181700895299A62
:1001300008952998089583B1809581700895CDB769
:10014000DEB72D970FB6F894DEBF0FBECDBF82E0AD
:1001500084B91D821E821F82188619860E9468003B
:10016000789412E0898581112DC0189BFECF1987E4
:100170000E944800462F572FBC014D835E836F833A
:1001800078870E9497000E9448006A877B878C8747
:100190009D878D819E81AF81B8852A853B854C8561
:1001A0005D85281B390B4A0B5B0BDA01C901883EC0
:1001B0009340A105B105B0F21899D4CF19860E94D9
:1001C0009900D0CF813099F2823069F6DCCFF89473
:0201D000FFCF5F
:00000001FF
